:020000040800F2
:10000000C8040020A10100084B160008571500087D
:1000100049160008AD020008711B0008000000002E
:100020000000000000000000000000004F16000863
:100030002D030008000000004D16000851160008AE
:10004000BB010008BB010008BB010008BB010008A0
:10005000BB010008BB010008BB010008BB01000890
:10006000BB010008BB010008BB010008BB01000880
:10007000BB010008BB010008BB010008BB01000870
:10008000BB010008BB010008BB010008BB01000860
:10009000E5020008BB010008BB010008BB01000825
:1000A000BB010008BB010008BB010008BB01000840
:1000B000BB010008BB010008BB010008BB01000830
:1000C000BB010008BB010008BB010008BB01000820
:1000D000BB010008651B0008BB010008BB0100084C
:1000E000BB010008BB010008BB010008BB01000800
:1000F000BB010008BB010008BB010008BB010008F0
:10010000BB010008BB010008BB010008BB010008DF
:10011000BB010008BB010008BB010008BB010008CF
:10012000BB010008BB010008BB010008BB010008BF
:10013000BB010008BB010008BB010008BB010008AF
:10014000BB010008BB010008BB010008BB0100089F
:10015000BB010008BB010008BB010008BB0100088F
:10016000BB010008BB010008BB010008BB0100087F
:10017000BB010008BB010008BB0100080000000033
:10018000BB010008BB010008DFF810D000F07CF8CC
:1001900000480047B11B0008AFF30080C8040020EE
:1001A0000648804706480047FEE7FEE7FEE7FEE711
:1001B000FEE7FEE7FEE7FEE7FEE7FEE7D9160008EA
:1001C000890100082DE9F05F0546002092469B4614
:1001D00088460646814640241BE02846414647465D
:1001E000224600F041F853465A46C01A914110D3B6
:1001F00011461846224600F028F82D1A67EB010830
:100200004F4622460120002100F01FF817EB00099D
:100210004E41201EA4F10104DFDC484631462A4647
:100220004346BDE8F09FD2B201E000F8012B491E21
:10023000FBD270470022F6E710B513460A46044683
:100240001946FFF7F0FF204610BD202A04DB203AB4
:1002500000FA02F1002070479140C2F1200320FA19
:1002600003F3194390407047202A04DB203A21FA17
:1002700002F00021704721FA02F3D040C2F12002BF
:100280009140084319467047064C074D06E0E06868
:1002900040F0010394E8070098471034AC42F6D3CD
:1002A000FFF776FF601C0008801C0008FEE70000D6
:1002B00000B58BB0002001210190029003900090C6
:1002C000CDE906010891049005906946044800F0C4
:1002D000AFF8002801D000F02AF80BB000BD0000F4
:1002E0005C000020014800F09EB900005C00002086
:1002F00010B5416000210823C160C0E904130176F4
:10030000535C4418491CC9B223770829F8D3034623
:1003100000F11C02011D044800F01CF808B1002087
:1003200010BD012010BD00005C0000207047704728
:1003300090F82020012A07D0022A05D0416A41F412
:100340008021416201207047006842690A4342618E
:1003500000207047F0B590F820500468A468012D83
:1003600005D0022D03D0416A41F480215DE014F0F4
:10037000406F01D1E50055D5C4F30164022C03D9C7
:10038000416A41F4000150E00125A5401D608D68DF
:100390004FF4C0739DB1CE6835434E6845EAC6053B
:1003A000066803EB0417F5514FF4C275076805EBB7
:1003B00004150E697E51097D012905D009E00E88DA
:1003C000CD6845EA4655EBE701684E5946F480761C
:1003D0004E511179D579567941EA056195792D0407
:1003E00045EA062529434FF4C676056806EB041650
:1003F000A9511178D57841EA0561957852782D0494
:1004000045EA022211434FF4C475026805EB041556
:100410005151006803EB0411425842F0010242506E
:100420000020F0BD416A41F4001141620120F0BD9D
:1004300010B590F82020012A07D0022A05D0416A81
:1004400041F480214162012010BD3B48D0F80022D8
:1004500042F00102C0F80022D0F8002222F47C52BF
:10046000C0F80022D0F800224B6A42EA0322C0F80A
:1004700000220A7D02F01F0301229A40D0F81C32AC
:100480009343C0F81C32CB69B3B9D0F80C32934314
:10049000C0F80C328C894B6864F31F434C6900EB45
:1004A000C404C4F840320C890B6864F31F434C69E0
:1004B00000EBC404C4F84432CB69012B16D1D0F848
:1004C0000C321343C0F80C320C884B6864F31F43A2
:1004D0004C6900EBC404C4F840320C89CB6864F367
:1004E0001F434C6900EBC404C4F844328B69002BF1
:1004F000D0F804320ED01343C0F804320B69002B3D
:10050000D0F8143208D01343C0F81432096A012914
:1005100004D008E09343EFE79343F5E7D0F81C12CB
:100520001143C0F81C12D0F8001221F00101C0F8EC
:100530000012002010BD000000640040704730B57C
:1005400090F82040012C05D0022C03D0416A41F4E0
:1005500080215DE00468002955D02469A40754D0A7
:100560004FF4D874056804EB01142D5915F00405F7
:10057000956005682D594ED0ED08556005682C59D9
:10058000C4F34004D4604FF4DA74056804EB01143A
:100590002D5905F00F05156105682D59C5F307257F
:1005A000956105682C59240C54614FF4DC72046881
:1005B00002EB0112A4581C700468A458240A5C7051
:1005C0000468A458240C9C700468A258120EDA70B7
:1005D0004FF4DE72046802EB0112A4581C71046827
:1005E000A458240A5C710468A458240C9C71046803
:1005F000A258120EDA71006881B1016941F0200140
:100600000161002030BDE468A8E7416A41F40011AF
:100610004162012030BD6D0D1560AFE7C16841F04A
:100620002001C160EDE72DE9F05F05460068002478
:100630004669D0F804908768D0F80CB0D0F810A0C4
:10064000D0F81880F10748D0F90714D00121816053
:10065000B80703D5284600F0FEF90CE0780702D56C
:100660004FF4006407E0380702D54FF4805402E0ED
:10067000284600F0EFF9F80516D529684FF4807088
:100680008860B80503D5284600F0E7F90CE0780546
:1006900002D544F4005407E0380502D544F4804400
:1006A00002E0284600F0D8F9F80316D529684FF47F
:1006B00080308860B80303D5284600F0D0F90CE0FC
:1006C000780302D544F4004407E0380302D544F42B
:1006D000803402E0284600F0C1F9300707D55FEA10
:1006E000CB6004D52968102044F40074C8607007FA
:1006F0004FF0080707D55FEA0B7004D52868C7607C
:10070000284600F059F9B00706D52868C068800768
:1007100002D0284600F052F9700607D55FEACA6099
:1007200004D52968102044F480640861B00607D518
:100730005FEA0A7004D528680761284600F05AF974
:10074000F00606D528680069800702D0284600F028
:1007500052F9B00308D55FEAC96005D529681020B1
:100760004860284600F048F9F00307D55FEA0970B1
:1007700004D528684760284600F072F9300446D551
:100780005FEA497040D5F00504D55FEAC87001D032
:1007900044F00104B00504D55FEA887001D544F047
:1007A0000204700504D55FEA487001D544F00404E2
:1007B000300529D518F0700F26D008F070004028B9
:1007C00015D006DC102809D020280AD0302816D1F0
:1007D0000AE050280ED0602811D10EE044F0080441
:1007E0000DE044F010040AE044F0200407E044F077
:1007F000400404E044F0800401E044F4807428687C
:10080000816921F070018161296804204860002C11
:1008100005D0686A204368622846FFF78FFEBDE86E
:10082000F09F70B5040003D094F8200010B104E0EC
:10083000012070BD204600F081F82068016821F099
:100840000201016000F004FA0546052604E000F00C
:10085000FFF9401B0A2811D8206840688007F6D4A9
:100860002068016841F00101016000F0F1F90546DE
:100870000BE000F0EDF9401B0A2806D9606A40F44D
:100880000030606284F82060D2E720684068C007CA
:10089000EFD0207E0128206801683DD021F0800142
:1008A0000160607E01282068016838D021F0400195
:1008B0000160A07E01282068016833D021F020016A
:1008C0000160E07E0128206801682ED041F010010F
:1008D0000160207F01282068016829D021F00801EB
:1008E0000160607F01282068016824D021F00401A4
:1008F0000160D4E902010843D4E90412114308431A
:100900006168491E08432168C861002060620120B7
:1009100084F82000002070BD41F08001C0E741F064
:100920004001C5E741F02001CAE721F01001CFE7FF
:1009300041F00801D4E741F00401D9E710B586B0D1
:10094000044614216846FFF775FC18492068884260
:1009500029D117480021026842F000720260006845
:1009600000F00070059012481038026842F0010251
:100970000260006800F0010005904FF4C050009044
:100980000220CDE90101032003900920049069466B
:10099000084800F079F800221146142000F0C6F94A
:1009A000142000F0B5F906B010BD0000006400404E
:1009B00040380240000002407047000010B5006857
:1009C000094988420FD1094B0021A3F11C0202F111
:1009D0002400FFF7B4FD18B1BDE81040FFF7A7BC35
:1009E00003490120087010BD00640040540000203D
:1009F00000000020704770477047000070B5044643
:100A000090F82000012804D0606A40F40020606261
:100A100018E0022084F820002068016821F001011C
:100A2000016000F015F905460EE000BF00F010F976
:100A3000401B0A2808D9606A40F400306062052033
:100A400084F82000012070BD20684068C007EDD107
:100A5000606270BD7047704770477047704770475D
:100A6000704790F83510022903D08021416501209C
:100A70007047052180F835100068016821F00101F8
:100A800001600020704700002DE9F84FDFF87CB1CD
:100A900000224FF001084FF0030A4FF00F090BF14D
:100AA000040E00BF0B6808FA02F42340A3426ED183
:100AB0004D68022D01D0122D0ED1D50800EB850C0A
:100AC000DCF820505607F70E09FA07F6B5430E6911
:100AD000BE402E43CCF82060066855000F790AFA14
:100AE00005FC07F0030726EA0C06AF403743076012
:100AF0004E68012E05D0022E03D0112E01D0122EE9
:100B00000ED18668CF6826EA0C06AF40374387606F
:100B10004668A6430C79C4F30014944034434460FF
:100B2000C6688C6826EA0C06AC403443C4604C6846
:100B3000E40065D5364C256845F480452560246879
:100B400022F0030504F480440094324C2E19D6F8A8
:100B5000084895072F0F09FA07F5AC432E4DA84218
:100B600001D1002524E02D4DA84201D101251FE02F
:100B70002B4DA84201D102251AE02A4DA84201D1ED
:100B8000032515E0284DA84202D1042510E037E0E6
:100B9000264DA84201D105250AE0254DA84201D1E4
:100BA000062505E0234DA84201D1072500E00825D0
:100BB000BD402543C6F80858DBF800405D464E6846
:100BC0009C43F60300D51C432C60DEF800407546BC
:100BD0004E689C43B60300D51C432C600B4D083572
:100BE0002C684E689C43F60200D51C432C60074DD0
:100BF0000C352C684E689C43B60200D51C432C6013
:100C0000521C102AFFF44EAFBDE8F88F003C0140A3
:100C1000443802400030014000000240000402401D
:100C200000080240000C0240001002400014024084
:100C300000180240001C0240426931EA020200D161
:100C40000904816170470AB1816170470904FBE7BB
:100C50000148806870470000040000200248816855
:100C60000278114481607047040000200B4810B5E1
:100C7000016841F400710160016841F48061016024
:100C8000016841F480710160032000F06FF80020DA
:100C900000F006F800F024F8002010BD003C0240EF
:100CA00070B50D4D04464FF47A712878B1FBF0F021
:100CB0000A490968B1FBF0F000F0E0FA48B9102CDD
:100CC00007D200222146501E00F030F800206C6050
:100CD00070BD012070BD0000040000201000002045
:100CE0000A4808B5016841F480410160006800F4D9
:100CF000804000900548001F016841F0805101606C
:100D0000006800F08050009008BD000044380240A8
:100D1000002809DB00F01F020121914040098000FA
:100D200000F1E020C0F8001170470000F0B40E4B55
:100D30001B680C46C3F30223C3F10705042D00D939
:100D40000425191D072901D2002300E0DB1E01261E
:100D500006FA05F1491E214099409E40761E164034
:100D60003143F0BC00F005BF0CED00E0064900F097
:100D7000070208684FF6FF03184040EA0220034AC2
:100D800010430860704700000CED00E00000FA0519
:100D90002DE9F0470E46050065D0DFF81481D8F83C
:100DA0000000F7B200F00F00B04207D288F80070E0
:100DB000D8F8000000F00F00B04254D128683D4C34
:100DC000810712D5400703D5206840F4E050206029
:100DD0002878000703D5206840F460402060206830
:100DE000A96820F0F000084320602878C0072DD0C3
:100DF000304968680839012812D0022813D0032826
:100E000011D00968890700292DDA216821F0030132
:100E100001432160FFF71CFF814641F2883A0EE052
:100E200009688903EFE709688901ECE7FFF710FF1C
:100E3000A0EB0901514502D90320BDE8F0872068E5
:100E4000696800F00C00B0EB810FEFD1D8F800100A
:100E5000404601F00F01B14207D90770006800F069
:100E60000F00B04201D00120E7E72878400705D500
:100E70002068E96820F4E0500843206028780007E3
:100E800006D52068296920F4604040EAC10020604E
:100E900000F036F82168084AC1F30311515CC840DC
:100EA000064908600020FFF7FBFE0020C5E70000B0
:100EB000003C024008380240481C00081000002096
:100EC0000448054900680968044AC1F38221515C5D
:100ED000C84070471000002008380240581C000825
:100EE0000448054900680968044AC1F34231515C6D
:100EF000C84070471000002008380240581C000805
:100F0000154810B5006810F00C02144813D04110B9
:100F1000042A0FD0082A0ED10F4C241F2268236800
:100F200002F03F025B0207D52068C0F38810A0FBE7
:100F3000010106E0084610BD2168C1F38811A1FB3C
:100F400000010023FFF73EF92168C1F30141491C6C
:100F50004900B0FBF1F010BD083802400024F40055
:100F60002DE9F84F050076D02878DFF8F8B2BE4CAE
:100F7000C00749D0DBF800105846C1F381010129B0
:100F800008D00068C0F3810002280AD1201D006843
:100F9000400206D52068800336D568680028E2D074
:100FA00032E06868B0F5803F10D0B0F5A02F20681F
:100FB00010D020F480302060206820F48020206051
:100FC0006868A0B1FFF744FE06460CE0206840F4D4
:100FD0008030F4E740F480202060F7E7FFF738FE28
:100FE000801B642873D820688003F7D50CE0FFF7D6
:100FF0002FFE064605E000BFFFF72AFE801B64288F
:10100000F0D820688003F7D42878DFF86082800762
:101010004FF000093ED5DBF80010584611F00C0FD8
:1010200009D00068C0F3810002280BD18D48001F51
:101030000068400206D42068800715D5E8680128BA
:1010400009D111E0E868B8B10120C8F80000FFF745
:10105000FFFD064605E002E1FFF7FAFD801B0228CE
:10106000C0D820688007F7D52068296920F0F800EB
:1010700040EAC10020600DE0C8F80090FFF7E8FDED
:10108000064604E0FFF7E4FD801B02281FD8206815
:101090008007F7D42878000722D5724E7448696912
:1010A0006C3671B101210160FFF7D2FD074604E003
:1010B000FFF7CEFDC01B022809D830688007F7D59E
:1010C0000EE0C0F80090FFF7C3FD074605E083E09F
:1010D000FFF7BEFDC01B02287ED830688007F7D41A
:1010E0002878400768D5DFF87CA100270AF1380A84
:1010F000DAF80000C0000BD4DAF8001041F080519B
:10110000CAF80010DAF80000012700F080500090C3
:10111000584E3068C00510D4306840F4807030609C
:10112000FFF796FD009005E0FFF792FD0099401A49
:10113000022851D83068C005F6D54A4EA8686836EE
:1011400001280FD00528306810D020F00100306051
:10115000306820F004003060A868B8B1FFF778FD6F
:1011600000900FE0306840F00100F4E740F0040028
:101170003060F7E7FFF76CFD0099411A41F28830C3
:10118000814264D830688007F4D50EE0FFF760FD37
:10119000009007E0FFF75CFD0099411A41F28830AA
:1011A000814254D830688007F4D42FB1DAF80010A7
:1011B00021F08051CAF80010A869C0B3DBF8001014
:1011C000C1F3810102294AD00228484607D0C8F855
:1011D0006000FFF73DFD00E039E005463AE0474694
:1011E000C8F86000FFF734FD064604E0FFF730FD65
:1011F000801B02282BD820688001F7D4D5E907018D
:101200000843A96A1C4A490802EB01416A6A41EA9B
:101210008211084395F82C1040EA01611148001F23
:10122000016001203866FFF713FD054605E014E074
:10123000FFF70EFD401B022809D820688001F7D572
:101240000BE000BFFFF704FD401B022802D903207A
:10125000BDE8F88F20688001F4D40020F8E7012071
:10126000F6E700000838024000380240000047421C
:10127000800E4742007000400000FFFF10B5401E86
:10128000B0F1807F01D3012010BD4FF0E0246061F8
:101290000F21601700F06DFC0020A0610720206185
:1012A000002010BD7047000070B502680446106849
:1012B000D168536910F00F0F50D003F0010501F40D
:1012C000907635435DD0C20705D0CA0503D5E26BE1
:1012D00042F00102E263420705D5DA0703D0E26B70
:1012E00042F00202E263820705D5DA0703D0E26B1F
:1012F00042F00402E263020705D5DA0703D0E26B8D
:1013000042F00802E263E26B002A33D0800604D583
:10131000880602D5204600F01FFA20684069E16B7C
:10132000C0F38010090700D428B3204600F006FA65
:101330002068416949061AD5416921F0400141619F
:10134000606BA0B11B490165606BFFF78AFB002849
:1013500010D0606B016DBDE870400847830610D562
:101360008B060ED52046BDE8704000F0F5B920464A
:10137000FFF798FF70BD2046FFF794FF0020E06361
:1013800070BD030606D50B0604D52046BDE87040A7
:1013900000F084BB4006F3D54806F1D5D16820465D
:1013A00021F04001D160202184F8391000F0D2F8FA
:1013B00070BD00002D17000870B5040004D094F82B
:1013C0003900002510B106E0012070BD84F83850C6
:1013D000204600F023F8242084F839002068C168F2
:1013E00021F40051C160204600F002FA2068016932
:1013F00021F4904101612068416921F02A01416195
:101400002068C16841F40051C160E563202084F880
:10141000390084F83A00002070BD000010B586B095
:10142000044614216846FEF705FF184920688842E3
:1014300029D11748016841F010010160006800F0EF
:101440001000059012481438016841F00101016054
:101450000068694600F0010005904FF4C0600090FC
:1014600002200190012002900320039007200490A5
:101470000848FFF709FB002211462520FFF756FC1C
:101480002520FFF745FC06B010BD0000001001400C
:10149000443802400000024070472DE9F8430446FA
:1014A00090F839001F4616460D46202850D1A5B1A8
:1014B0009EB194F8380001284AD0012084F8380001
:1014C0004FF00008C4F83C80212084F83900FFF771
:1014D000BFFBA6848146E68426E00120BDE8F883B0
:1014E000E08C401EE084A0684B46B0F5805F4FF072
:1014F00000024FF080012046009703D000F0FFFA71
:10150000E8B90DE000F0FBFAC8B928882168C0F3FB
:1015100008004860206908B16D1C05E0AD1C03E0BF
:10152000216815F8010B4860E08C0028D8D14B46A3
:10153000002240212046009700F0E1FA08B1032084
:10154000CCE7202084F8390084F838800020C5E7F3
:101550000220C3E77047FEE7104810B50E4901604E
:10156000032141604FF08041816000214FF400224F
:10157000C0E903124FF44012426101764176817650
:10158000C17601774177FFF74CF9002803D0BDE819
:101590001040FEF7CCBE10BD006400405C0000208F
:1015A00070B586B014216846FEF744FE1648002444
:1015B000016841F020010160016801F020010591FE
:1015C000016841F080010160016801F0800105912E
:1015D000016841F00101016000680C4E00F001005B
:1015E0004FF400750590002229463046FFF72BFB8B
:1015F00001200095CDE90104694630460394FFF7C8
:1016000043FA06B070BD00003038024000140240BA
:101610000C4810B50A4901604FF4E13141600021E6
:1016200081600C22C160C0E904128161C161FFF7D1
:10163000C3FE002803D0BDE81040FEF778BE10BD01
:101640000010014084000020FEE77047704770479B
:10165000FFF704BB30B593B030216846FEF7EAFDD2
:1016600014210CA8FEF7E6FD19480025016841F099
:1016700080510160006800F08050119015480168A9
:1016800041F4804101600068022400F48040119020
:1016900001200090000401908001CDE9064008AAD5
:1016A0000420A82182E813000B906846FFF758FC3D
:1016B0000CA90F2081E831004FF4A0500F90E002F8
:1016C000109005210CA8FFF763FB13B030BD00009C
:1016D00040380240007000401048016841F4700139
:1016E00001600F48016841F0010101600C4A0021CE
:1016F0000832116002680B4B1A400260031D0A4A4F
:101700001A60026822F48022026005480C300160F1
:1017100002495806803908607047000088ED00E0F3
:1017200000380240FFFFF6FE1030002410B5806B39
:101730000021C185C184FFF7B5FD10BD0168CA68ED
:1017400022F49072CA6001684A6922F001024A617B
:10175000202180F83A10704710B590F83A102229ED
:1017600001D0022010BD8168B1F5805F11D0016900
:10177000002901681FD0496801F07F03816A4A1C73
:1017800082620B70C18D491E0904090CC18518D0F5
:101790002BE00269816A002A0268526805D0D2B241
:1017A0000A80816A491C8162ECE7C2F308020A8060
:1017B000816A891CF7E74A68816A4B1C83620A7058
:1017C000E0E70168CA6822F02002CA600168CA68BE
:1017D00022F48072CA6001684A6922F001024A61FB
:1017E000202180F83A10FFF757FE002010BD0000BE
:1017F0002DE9F041044600680169E26821F4405196
:10180000114301612169A068E269084361691143DC
:1018100022680843D16849F20C6399430143D160BF
:1018200020684169A26921F4407111434161E26974
:101830006425B2F5004F9748974922684FF0320867
:101840003FD08A4201D082427CD1FFF749FB00EBB6
:10185000C00101EB001061688900B0FBF1F6FFF7F1
:101860003FFB00EBC00101EB001061688900B0FB99
:10187000F1F0B0FBF5F06FF01801484306EB800182
:1018800008EB0110B0FBF5F000F0F006FFF728FBC5
:1018900000EBC00101EB001061688900B0FBF1F0C2
:1018A000B0FBF5F006EB0016FFF71AFB00EBC001EA
:1018B00001EB001061688900B0FBF1F7FFF710FB46
:1018C000D2E08A4201D082423DD1FFF709FB00EB12
:1018D000C00101EB001061684900B0FBF1F0B0FB02
:1018E000F5F00601FFF7FCFA00EBC00101EB001078
:1018F00061684900B0FBF1F7FFF7F2FA00EBC001B5
:1019000001EB001061684900B0FBF1F0B0FBF5F0AD
:101910006FF01801484307EB800108EBC100B0FBF2
:10192000F5F000F0F80006EB4006FFF7D9FA00EBFF
:10193000C00101EB001061684900B0FBF1F7FFF74F
:10194000CFFA3CE055E0FFF7BBFA00EBC00101EB3A
:10195000001061684900B0FBF1F0B0FBF5F0060142
:10196000FFF7AEFA00EBC00101EB0010616849001F
:10197000B0FBF1F7FFF7A4FA00EBC00101EB001098
:1019800061684900B0FBF1F0B0FBF5F06FF01801B1
:10199000484307EB800108EBC100B0FBF5F000F015
:1019A000F80006EB4006FFF78BFA00EBC00101EBF5
:1019B000001061684900B0FBF1F7FFF781FA00EB16
:1019C000C00101EB001061684900B0FBF1F0B0FB11
:1019D000F5F06FF01801484307EB800108EBC100F8
:1019E000B0FBF5F000F00700216830448860BDE8E6
:1019F000F081FFF765FA00EBC00101EB00106168B0
:101A00008900B0FBF1F6FFF75BFA00EBC00101EBD8
:101A1000001061688900B0FBF1F0B0FBF5F06FF0E9
:101A20001801484306EB800108EB0110B0FBF5F00C
:101A300000F0F006FFF744FA00EBC00101EB0010E4
:101A400061688900B0FBF1F0B0FBF5F006EB001621
:101A5000FFF736FA00EBC00101EB00106168890066
:101A6000B0FBF1F7FFF72CFA00EBC00101EB00101F
:101A700061688900B0FBF1F0B0FBF5F06FF0180180
:101A8000484307EB800108EB0110B0FBF5F000F0D4
:101A90000F00A9E7001401400010014090F8391030
:101AA000212901D0022070478168B1F5805F016A69
:101AB0000BD04A1C0262026809785160C18C491E31
:101AC0000904090CC1840ED017E009880268C1F32B
:101AD0000801516001690029016A02D0491C0162B4
:101AE000ECE7891CFBE70168CA6822F08002CA6043
:101AF0000068C16841F04001C160002070472DE9D5
:101B0000F041984617460E460446069D1DE0681CA7
:101B10001BD02DB1FFF79CF8A0EB0800A84214D908
:101B20002068C16821F4D071C1602068416921F04A
:101B300001014161202084F8390084F83A00002036
:101B400084F838000320BDE8F0812068006836EA98
:101B5000000004D00020B842D9D00020F3E70120D3
:101B6000F9E700000148FFF79FBB00008400002058
:101B7000FEE70907090E002804DB00F1E02080F8E9
:101B80000014704700F00F0000F1E02080F8141DF1
:101B9000704702E008C8121F08C1002AFAD1704736
:101BA0007047002001E001C1121F002AFBD17047DD
:101BB0001CB51DA1D1E90001CDE90001FFF756F8E0
:101BC000FFF748FDFFF7ECFCFFF7C6FCFFF720FD31
:101BD0001748FEF713FFFEF76BFB02211448FEF7D0
:101BE000A7FB6A4612211348FEF782FB134C124EE4
:101BF000DFF84C9000274FF400784FF6FF7A04F19D
:101C00001C0530780128FCD13770207F0128F8D1DD
:101C100041464846FFF710F853460822294609482E
:101C2000FFF73BFCEDE7000001020304050607088F
:101C30005C0000201400002000000020380000207C
:101C4000001402408400002000000000000000009A
:101C50000102030406070809000000000102030452
:101C6000801C00080000002014000000921B0008E7
:101C7000941C000814000020B4040000A21B0008FB
:101C80000000000001000000100000000000000043
:041C90000024F40038
:040000050800018965
:00000001FF
